S01100004C45444D61747269782E73726563C9
S11300000C942A000C943F000C9441000C943F0083
S11300100C943F000C943F000C943F000C943F0060
S11300200C943F000C943F000C943F000C943F0050
S11300300C943F000C943F000C943F000C943F0040
S11300400C943F000C943F000C943F000C943F0030
S11300500C943F0011241FBECFE5D8E0DEBFCDBF16
S113006010E0A0E6B0E0E0E7F1E002C005900D92F8
S1130070A237B107D9F70E9457000C94B6000C942C
S113008000001F920F920FB60F9211248F9380914C
S11300907000811104C081E08093700002C010924E
S11300A070008F910F900FBE0F901F9018958FEFD7
S11300B087BB84BB88E085BF80E88BBF789460E011
S11300C070E002C060E070E020E030E01DC0CB01D1
S11300D0820F931F87709078992324F40197886F77
S11300E09F6F0196FC01E05AFF4F408145BBFC0124
S11300F0E859FF4F808188BB89EF90E00197F1F7C1
S113010000C000002F5F3F4F283C310504F320E07E
S113011030E01CC0F901E859FF4F808190E0409124
S11301207000DC0102C0B595A7954A95E2F7B0913D
S1130130700048E050E04B1B510902C0880F991F22
S11301404A95E2F78A2B80832F5F3F4F2830310591
S11301500CF383EC99E00197F1F700C000006F5FA6
S11301607F4F683071050CF0ADCFAECFF894FFCF60
S11301700102040810204080FF81B5B5B5B5B5FF74
S1050180010078
S9030000FC
